:030000000209B939
:0C09B900787FE4F6D8FD75811402090C6B
:0A09C500C0F9A4B0999282F8809066
:10090C00C292C291C290C295C294C293C2B2C29713
:10091C00C296D292D293D296120964C293D2947F89
:10092C00057E00120968C292C294D295D290120927
:10093C0064D297C2967F057E00120968C295C29751
:10094C00D2B2D293120964D291C2907F057E00126A
:08095C000968C291C2B280BA21
:040964007F097E0089
:040968008E088F095D
:10096C00780A7C007D007BFF7A0979C57E007F0ABE
:10097C001208D0E4F5A0F514C3E5149509E5086454
:10098C0080F87480985025740A2514F8E6F5A09028
:10099C000000AF82AE83E4FCFD7B407A9CF9F8D377
:0C09AC001208F64003A380EA051480CC7A
:0109B800221C
:10080000E709F608DFFA8046E709F208DFFA803EDA
:1008100088828C83E709F0A3DFFA8032E309F608C7
:10082000DFFA8078E309F208DFFA807088828C832F
:10083000E309F0A3DFFA806489828A83E0A3F608E3
:10084000DFFA805889828A83E0A3F208DFFA804CBD
:1008500080D280FA80C680D4806980F28033801094
:1008600080A680EA809A80A880DA80E280CA8033FD
:1008700089828A83ECFAE493A3C8C582C8CCC58375
:10088000CCF0A3C8C582C8CCC583CCDFE9DEE78045
:100890000D89828A83E493A3F608DFF9ECFAA9F0C4
:1008A000EDFB2289828A83ECFAE0A3C8C582C8CC1A
:1008B000C583CCF0A3C8C582C8CCC583CCDFEADE33
:1008C000E880DB89828A83E493A3F208DFF980CC95
:1008D00088F0EF60010E4E60C388F0ED2402B4048E
:1008E0000050B9F582EB2402B4040050AF23234535
:0608F00082239008507302
:1008F600EB9FF5F0EA9E42F0E99D42F0EC6480C879
:0609060064809845F02218
:00000001FF
